:060000000A128A11DE2D38
:100BBC0083010A128A11992E38300A128A112626BC
:100BCC000A128A1101300A128A1126260A128A1177
:100BDC000C300A128A1126260A128A110800F72DE7
:100BEC00F72D0130F0020030031CF103F102FF304D
:100BFC007106031D032EFF307006031D062E072EF3
:100C0C00F72D082E0800F2007208831203138600D9
:100C1C00081788173230F0000030F1000A128A11E0
:100C2C00F5250A128A118312031388136430F0001D
:100C3C000030F1000A128A11F5250A128A110800F7
:100C4C00F2007208831203138600081388173230DF
:100C5C00F0000030F1000A128A11F5250A128A11EF
:100C6C008312031388136430F0000030F1000A1271
:100C7C008A11F5250A128A110800831603178801B8
:100C8C008901073083160313850083120313850132
:100C9C008316031386018312031386018730831690
:100CAC000313870083120313870183160313880130
:100CBC008312031388018316031389018312031310
:100CCC0089010800F701F801852E77087307F500F4
:100CDC0078080318780A7407F600750884008317DF
:100CEC00761C831300080A128A1109260A128A112B
:100CFC000130F7070318F80A0030F807852E77083B
:100D0C007307F50078080318780A7407F60075085D
:100D1C0084008317761C83138008031D962E972E50
:100D2C006B2E982E08006030831603138F000A1266
:100D3C008A1143260A128A110A128A11E2250A1212
:100D4C008A11A82E83120313851505128512051C12
:100D5C00B02EB12ED02E31300A128A1109260A1269
:100D6C008A11B82E8312031305140518BE2EBF2E3C
:100D7C00B82EC02E0130F9070318FA0A0030FA0712
:100D8C006430F0000030F1000A128A11F5250A12C5
:100D9C008A11D02E83120313851CD52ED62EF52E38
:100DAC0032300A128A1109260A128A11DD2E831298
:100DBC00031385148518E32EE42EDD2EE52E013069
:100DCC00F9070318FA0A0030FA076430F000003013
:100DDC00F1000A128A11F5250A128A11F52E8312D6
:100DEC000313051DFA2EFB2E1A2F33300A128A110B
:100DFC0009260A128A11022F8312031305150519ED
:100E0C00082F092F022F0A2F0130F9070318FA0AAD
:100E1C000030FA076430F0000030F1000A128A1139
:100E2C00F5250A128A111A2F831203130516851140
:100E3C008512051C222F232F442F3430F300003051
:100E4C00F4000A128A1168260A128A112D2F8312B5
:100E5C0003130518322F332F2D2F342F0130F907A0
:100E6C000318FA0A0030FA076430F0000030F10081
:100E7C000A128A11F5250A128A11442F83120313C0
:100E8C00851C492F4A2F682F35300A128A110926E2
:100E9C000A128A11512F831203138518562F572FBC
:100EAC00512F582F0130F9070318FA0A0030FA07AE
:100EBC006430F0000030F1000A128A11F5250A1294
:100ECC008A11682F83120313051D6D2F6E2F8C2F23
:100EDC0036300A128A1109260A128A11752F8312CA
:100EEC00031305197A2F7B2F752F7C2F0130F907EF
:100EFC000318FA0A0030FA076430F0000030F100F1
:100F0C000A128A11F5250A128A118C2F83120313E7
:100F1C00851685110512051C942F952FB32F37308C
:100F2C000A128A1109260A128A119C2F83120313A2
:100F3C000518A12FA22F9C2FA32F0130F9070318FE
:100F4C00FA0A0030FA076430F0000030F1000A129F
:100F5C008A11F5250A128A11B32F83120313851CEB
:100F6C00B82FB92FD72F38300A128A1109260A1236
:100F7C008A11C02F831203138518C52FC62FC02FBB
:100F8C00C72F0130F9070318FA0A0030FA0764304A
:100F9C00F0000030F1000A128A11F5250A128A11AC
:100FAC00D72F83120313051DDC2FDD2FA82E39300C
:100FBC000A128A1109260A128A11E42F83120313CA
:100FCC000519E92FEA2FE42FEB2F0130F90703184D
:100FDC00FA0A0030FA076430F0000030F1000A120F
:100FEC008A11F5250A128A11A82EA82EA82E0A12EB
:040FFC008A1100282E
:00000001FF
